:020000000A28CC
:10000800FE00030EF0000A08F1003E2C1D2C83129E
:100018000313BB01F9017A08790203182928031090
:10002800790D203E2C211030730201300319720221
:10003800031C27280310790D243E84004221031055
:10004800790D203E5721F90A0F28F9017A0879021B
:1000580003184A280310790D243E2C2179082C3ED8
:10006800840000084F21790D3421031C48280130F1
:10007800F200790A41280310F20DFF3E031D3F28C4
:10008800720883120313BB04F90A2A28F8017A08B4
:10009800780203187B2878082C3E84008313000814
:1000A800F2000310F20C0310F20C7208F9000D3084
:1000B8007902031861280C30F9000310780D243EEA
:1000C8008400422179084F21780D3421031C7928B6
:1000D80083120313B801B901F9017A0879020318E8
:1000E800792803104821F90A7128F80A4B28831245
:1000F8000313BB08031DC228B90A3908083A031DAF
:10010800C228B901F9017A0879020318A028031056
:10011800790D203E2C210310790D283E84007208A9
:100128008007840F00080318000AFF0073087F0780
:1001380080008403F90A872883120313B80A380851
:10014800083A031DC228B801F9017A087902031890
:10015800C2280310790D283E2C210310F30CF20C51
:100168000310F30CF20C0310F30CF20C0310790DCE
:10017800243E572103104821F90AA92883120313A2
:1001880059085804031908293D083C060319D028C2
:100198003C08BD00AE01AF01AE0A0319AF0A590809
:1001A8002F02031DD92858082E02031C0829AE0166
:1001B800AF013C0803190829BC01B801B901BF0106
:1001C800831603179013640095236400831603179E
:1001D8009017F9017A087902031808290310790D94
:1001E800243E8400FF30831380000F30840A80008F
:1001F800031048217908323E840080017908343E92
:1002080084008001F90AEE287B08831203133E0656
:10021800031D2729B00A0319B10A01303102F4304D
:1002280003193002031C0800B001B1017B0803194F
:10023800080083160317901364009523640083163F
:100248000317901708007B08BE00B001B101080031
:10025800840083130008F200840A0008F3000800F1
:10026800203E84000008F600840A0008F70075089C
:100278007702031D08007408760208000008F200DF
:10028800840A0008F3000800790D283E84008001E4
:10029800840A800108007207F40073080318730ABF
:1002A800F50003100800840072088000840A7308AF
:1002B800800008008312C700D101CA01CB01CC011C
:1002C800CD0183160F088312CF007030CF051008B8
:1002D800D0003030D0050E08C8000F08C90010182B
:1002E80051148B1BD114303083168F008B1383125B
:1002F800101090008E018F011930831603179C008F
:100308000B130B1B8929640085298312031310140E
:100318000B130B1B912964008D29831203131010F2
:100328000B130F08D200D301D300D2010E08D20458
:10033800CE0147084E020318B429640050308312D6
:100348000313CA07C3300318C430CB07003003189F
:100358000130CC07003003180130CD07CE0A9D29A3
:1003680003300310CD0CCC0CCB0CCA0CFF3E031D84
:10037800B5295208F2005308F300F401F5014D08BD
:10038800F9004C08F8004B08F7004A08F60010235B
:100398007308D3007208D2005308C6005208C5007B
:1003A8000310C60CC50C4508831603179C0083125E
:1003B80003134F0883168F00831251181014500826
:1003C800900048088E0049088F00D1188B175208F2
:1003D8000800D7018B1B57148B131A18D7141A103F
:1003E8009A1857159A101018D71510108316011E51
:1003F800FF2983125716831601128B1E062A8312B1
:10040800D7168B120A300B115E21BA0028305E21F4
:10041800833083160317900090160B139015640011
:10042800831603179508031D1C2A630000000000AB
:100438000B1F242A0B136400262A63000000000007
:10044800031E212A83160317901290118312031397
:1004580003103A0C831603179C0086309000A030D6
:10046800F2000130F300BB2283120313D6010310FC
:10047800560D203E840083130008D400840A000827
:10048800D5000310560D243E840054088000840AC9
:10049800550880000230D60A5602031C3C2AD71A97
:1004A8008B16571E592A831601168312D719101452
:1004B80057199A14D7181A1457188B1708000330AD
:1004C800DC00E830D8000330D90083168504950491
:1004D8000317970005309C0095237C309E001C3044
:1004E8009F00293091008630900003308312031357
:1004F800DA00DB000230FA00F5010310750D243E26
:100508008400FF30831380000F30840A80000310BA
:10051800750D283E84008001840A80017508323EEA
:10052800840002308001F50A7502031C822AF50155
:10053800F401F40AF30174085C057406031DB02A7B
:1005480075085D3E840083130008F20073082C3E92
:10055800840072088000F30A04300310F40DF50AD1
:100568007502031C9F2ABC01B801B9010800730871
:1005780083120313C1007208C000831603171017F3
:1005880083120313C501C401C40AC60144085C05EB
:100598004406031DFF2A4508F400F5010310F40D75
:1005A800F50D74084007F60075080318750A410729
:1005B800F700760884008317771C83130008C200AD
:1005C800840A0008C3000A2383138000840A4308AE
:1005D80080004208C300C2010310460D203E84007B
:1005E800840A00088001840380000A238004840AA6
:1005F80043088004C60A04300310C40DC50A450226
:10060800031CCA2A83160317101308000310460D8B
:10061800203E840042080800C001C101C201C30194
:10062800750874047304720403194F2BC401C40AB7
:10063800F51B242B0310F20DF30DF40DF50D1B2BF8
:100648000310C00DC10DC20DC30D75087902031D3D
:10065800372B74087802031D372B73087702031DA4
:10066800372B72087602031C492B7208F6027308AE
:10067800031C730FF7027408031C740FF802750843
:10068800031C750FF90240140310F50CF40CF30C5D
:10069800F20CC40B242B4308F5004208F40041086F
:1006A800F3004008F2000800F301F201F20A7A08A8
:1006B800730203180800831203133B0872057206BD
:1006C800031D7B2B7308323E84008313800A730852
:1006D800343E840080017308323E84005A080002C8
:1006E800031C922B7208BF047308323E8F2B7308C9
:1006F800343E84008313800A7308343E84005B0808
:100708000002031C922B7209BF057308323E840055
:1007180080017308343E840080010310F20DF30A4F
:100728005B2B8316031710170F30A000FF30A100B2
:100738000F30A200FF30A3000F30A400FF30A50047
:100748000F30A600FF30A700B801B901BA01BB01FC
:10075800BC01BD01BE01BF01B001831203135D08D6
:1007680083160317B100B201831203135E088316C0
:100778000317B300B401831203135F08831603172A
:10078800B500B60183120313600883160317B70078
:1007980010130800F401F40AF301F30A8312031397
:1007A800BC01F2015C0874057406031DE42B3F08C4
:1007B80073057306031DE22B7408BC040310F30DC4
:1007C80004300310F40DF20A720203180800D62B45
:1007D8003C080319F12BB601B701B60A0319B70A89
:1007E80003303702E83003193602031C0800B6014B
:1007F800B701ED298B0164006030831603138F0065
:100808000F2463220A305E2164000B1F082C0B138F
:100818002A24EC23082C831285018316850195016F
:10082800970183128501831696011530831298006B
:1008380008002030FB018313840040303624C83080
:10084800DD00DE00DF00E0008301FE2B83160317C6
:100858001508FB00A830F2000130F300BB220B2082
:100868005823CE2B64008001840A0406031900343F
:100878000406372C71088A00700E8300FE0E7E0E67
:02088800090065
:00000001FF
